{
  "_format": "hh3-artifact-1",
  "contractName": "BurnMintTokenPool",
  "sourceName": "@chainlink/contracts-ccip/contracts/pools/BurnMintTokenPool.sol",
  "abi": [
    {
      "inputs": [
        {
          "internalType": "contract IBurnMintERC20",
          "name": "token",
          "type": "address"
        },
        {
          "internalType": "uint8",
          "name": "localTokenDecimals",
          "type": "uint8"
        },
        {
          "internalType": "address[]",
          "name": "allowlist",
          "type": "address[]"
        },
        {
          "internalType": "address",
          "name": "rmnProxy",
          "type": "address"
        },
        {
          "internalType": "address",
          "name": "router",
          "type": "address"
        }
      ],
      "stateMutability": "nonpayable",
      "type": "constructor"
    },
    {
      "inputs": [],
      "name": "AllowListNotEnabled",
      "type": "error"
    },
    {
      "inputs": [],
      "name": "BucketOverfilled",
      "type": "error"
    },
    {
      "inputs": [
        {
          "internalType": "address",
          "name": "caller",
          "type": "address"
        }
      ],
      "name": "CallerIsNotARampOnRouter",
      "type": "error"
    },
    {
      "inputs": [],
      "name": "CannotTransferToSelf",
      "type": "error"
    },
    {
      "inputs": [
        {
          "internalType": "uint64",
          "name": "chainSelector",
          "type": "uint64"
        }
      ],
      "name": "ChainAlreadyExists",
      "type": "error"
    },
    {
      "inputs": [
        {
          "internalType": "uint64",
          "name": "remoteChainSelector",
          "type": "uint64"
        }
      ],
      "name": "ChainNotAllowed",
      "type": "error"
    },
    {
      "inputs": [],
      "name": "CursedByRMN",
      "type": "error"
    },
    {
      "inputs": [
        {
          "components": [
            {
              "internalType": "bool",
              "name": "isEnabled",
              "type": "bool"
            },
            {
              "internalType": "uint128",
              "name": "capacity",
              "type": "uint128"
            },
            {
              "internalType": "uint128",
              "name": "rate",
              "type": "uint128"
            }
          ],
          "internalType": "struct RateLimiter.Config",
          "name": "config",
          "type": "tuple"
        }
      ],
      "name": "DisabledNonZeroRateLimit",
      "type": "error"
    },
    {
      "inputs": [
        {
          "internalType": "uint8",
          "name": "expected",
          "type": "uint8"
        },
        {
          "internalType": "uint8",
          "name": "actual",
          "type": "uint8"
        }
      ],
      "name": "InvalidDecimalArgs",
      "type": "error"
    },
    {
      "inputs": [
        {
          "components": [
            {
              "internalType": "bool",
              "name": "isEnabled",
              "type": "bool"
            },
            {
              "internalType": "uint128",
              "name": "capacity",
              "type": "uint128"
            },
            {
              "internalType": "uint128",
              "name": "rate",
              "type": "uint128"
            }
          ],
          "internalType": "struct RateLimiter.Config",
          "name": "rateLimiterConfig",
          "type": "tuple"
        }
      ],
      "name": "InvalidRateLimitRate",
      "type": "error"
    },
    {
      "inputs": [
        {
          "internalType": "bytes",
          "name": "sourcePoolData",
          "type": "bytes"
        }
      ],
      "name": "InvalidRemoteChainDecimals",
      "type": "error"
    },
    {
      "inputs": [
        {
          "internalType": "uint64",
          "name": "remoteChainSelector",
          "type": "uint64"
        },
        {
          "internalType": "bytes",
          "name": "remotePoolAddress",
          "type": "bytes"
        }
      ],
      "name": "InvalidRemotePoolForChain",
      "type": "error"
    },
    {
      "inputs": [
        {
          "internalType": "bytes",
          "name": "sourcePoolAddress",
          "type": "bytes"
        }
      ],
      "name": "InvalidSourcePoolAddress",
      "type": "error"
    },
    {
      "inputs": [
        {
          "internalType": "address",
          "name": "token",
          "type": "address"
        }
      ],
      "name": "InvalidToken",
      "type": "error"
    },
    {
      "inputs": [],
      "name": "MismatchedArrayLengths",
      "type": "error"
    },
    {
      "inputs": [],
      "name": "MustBeProposedOwner",
      "type": "error"
    },
    {
      "inputs": [
        {
          "internalType": "uint64",
          "name": "remoteChainSelector",
          "type": "uint64"
        }
      ],
      "name": "NonExistentChain",
      "type": "error"
    },
    {
      "inputs": [],
      "name": "OnlyCallableByOwner",
      "type": "error"
    },
    {
      "inputs": [
        {
          "internalType": "uint8",
          "name": "remoteDecimals",
          "type": "uint8"
        },
        {
          "internalType": "uint8",
          "name": "localDecimals",
          "type": "uint8"
        },
        {
          "internalType": "uint256",
          "name": "remoteAmount",
          "type": "uint256"
        }
      ],
      "name": "OverflowDetected",
      "type": "error"
    },
    {
      "inputs": [],
      "name": "OwnerCannotBeZero",
      "type": "error"
    },
    {
      "inputs": [
        {
          "internalType": "uint64",
          "name": "remoteChainSelector",
          "type": "uint64"
        },
        {
          "internalType": "bytes",
          "name": "remotePoolAddress",
          "type": "bytes"
        }
      ],
      "name": "PoolAlreadyAdded",
      "type": "error"
    },
    {
      "inputs": [
        {
          "internalType": "address",
          "name": "sender",
          "type": "address"
        }
      ],
      "name": "SenderNotAllowed",
      "type": "error"
    },
    {
      "inputs": [
        {
          "internalType": "uint256",
          "name": "capacity",
          "type": "uint256"
        },
        {
          "internalType": "uint256",
          "name": "requested",
          "type": "uint256"
        },
        {
          "internalType": "address",
          "name": "tokenAddress",
          "type": "address"
        }
      ],
      "name": "TokenMaxCapacityExceeded",
      "type": "error"
    },
    {
      "inputs": [
        {
          "internalType": "uint256",
          "name": "minWaitInSeconds",
          "type": "uint256"
        },
        {
          "internalType": "uint256",
          "name": "available",
          "type": "uint256"
        },
        {
          "internalType": "address",
          "name": "tokenAddress",
          "type": "address"
        }
      ],
      "name": "TokenRateLimitReached",
      "type": "error"
    },
    {
      "inputs": [
        {
          "internalType": "address",
          "name": "caller",
          "type": "address"
        }
      ],
      "name": "Unauthorized",
      "type": "error"
    },
    {
      "inputs": [],
      "name": "ZeroAddressInvalid",
      "type": "error"
    },
    {
      "anonymous": false,
      "inputs": [
        {
          "indexed": false,
          "internalType": "address",
          "name": "sender",
          "type": "address"
        }
      ],
      "name": "AllowListAdd",
      "type": "event"
    },
    {
      "anonymous": false,
      "inputs": [
        {
          "indexed": false,
          "internalType": "address",
          "name": "sender",
          "type": "address"
        }
      ],
      "name": "AllowListRemove",
      "type": "event"
    },
    {
      "anonymous": false,
      "inputs": [
        {
          "indexed": false,
          "internalType": "uint64",
          "name": "remoteChainSelector",
          "type": "uint64"
        },
        {
          "indexed": false,
          "internalType": "bytes",
          "name": "remoteToken",
          "type": "bytes"
        },
        {
          "components": [
            {
              "internalType": "bool",
              "name": "isEnabled",
              "type": "bool"
            },
            {
              "internalType": "uint128",
              "name": "capacity",
              "type": "uint128"
            },
            {
              "internalType": "uint128",
              "name": "rate",
              "type": "uint128"
            }
          ],
          "indexed": false,
          "internalType": "struct RateLimiter.Config",
          "name": "outboundRateLimiterConfig",
          "type": "tuple"
        },
        {
          "components": [
            {
              "internalType": "bool",
              "name": "isEnabled",
              "type": "bool"
            },
            {
              "internalType": "uint128",
              "name": "capacity",
              "type": "uint128"
            },
            {
              "internalType": "uint128",
              "name": "rate",
              "type": "uint128"
            }
          ],
          "indexed": false,
          "internalType": "struct RateLimiter.Config",
          "name": "inboundRateLimiterConfig",
          "type": "tuple"
        }
      ],
      "name": "ChainAdded",
      "type": "event"
    },
    {
      "anonymous": false,
      "inputs": [
        {
          "indexed": false,
          "internalType": "uint64",
          "name": "remoteChainSelector",
          "type": "uint64"
        },
        {
          "components": [
            {
              "internalType": "bool",
              "name": "isEnabled",
              "type": "bool"
            },
            {
              "internalType": "uint128",
              "name": "capacity",
              "type": "uint128"
            },
            {
              "internalType": "uint128",
              "name": "rate",
              "type": "uint128"
            }
          ],
          "indexed": false,
          "internalType": "struct RateLimiter.Config",
          "name": "outboundRateLimiterConfig",
          "type": "tuple"
        },
        {
          "components": [
            {
              "internalType": "bool",
              "name": "isEnabled",
              "type": "bool"
            },
            {
              "internalType": "uint128",
              "name": "capacity",
              "type": "uint128"
            },
            {
              "internalType": "uint128",
              "name": "rate",
              "type": "uint128"
            }
          ],
          "indexed": false,
          "internalType": "struct RateLimiter.Config",
          "name": "inboundRateLimiterConfig",
          "type": "tuple"
        }
      ],
      "name": "ChainConfigured",
      "type": "event"
    },
    {
      "anonymous": false,
      "inputs": [
        {
          "indexed": false,
          "internalType": "uint64",
          "name": "remoteChainSelector",
          "type": "uint64"
        }
      ],
      "name": "ChainRemoved",
      "type": "event"
    },
    {
      "anonymous": false,
      "inputs": [
        {
          "components": [
            {
              "internalType": "bool",
              "name": "isEnabled",
              "type": "bool"
            },
            {
              "internalType": "uint128",
              "name": "capacity",
              "type": "uint128"
            },
            {
              "internalType": "uint128",
              "name": "rate",
              "type": "uint128"
            }
          ],
          "indexed": false,
          "internalType": "struct RateLimiter.Config",
          "name": "config",
          "type": "tuple"
        }
      ],
      "name": "ConfigChanged",
      "type": "event"
    },
    {
      "anonymous": false,
      "inputs": [
        {
          "indexed": true,
          "internalType": "uint64",
          "name": "remoteChainSelector",
          "type": "uint64"
        },
        {
          "indexed": false,
          "internalType": "address",
          "name": "token",
          "type": "address"
        },
        {
          "indexed": false,
          "internalType": "uint256",
          "name": "amount",
          "type": "uint256"
        }
      ],
      "name": "InboundRateLimitConsumed",
      "type": "event"
    },
    {
      "anonymous": false,
      "inputs": [
        {
          "indexed": true,
          "internalType": "uint64",
          "name": "remoteChainSelector",
          "type": "uint64"
        },
        {
          "indexed": false,
          "internalType": "address",
          "name": "token",
          "type": "address"
        },
        {
          "indexed": false,
          "internalType": "address",
          "name": "sender",
          "type": "address"
        },
        {
          "indexed": false,
          "internalType": "uint256",
          "name": "amount",
          "type": "uint256"
        }
      ],
      "name": "LockedOrBurned",
      "type": "event"
    },
    {
      "anonymous": false,
      "inputs": [
        {
          "indexed": true,
          "internalType": "uint64",
          "name": "remoteChainSelector",
          "type": "uint64"
        },
        {
          "indexed": false,
          "internalType": "address",
          "name": "token",
          "type": "address"
        },
        {
          "indexed": false,
          "internalType": "uint256",
          "name": "amount",
          "type": "uint256"
        }
      ],
      "name": "OutboundRateLimitConsumed",
      "type": "event"
    },
    {
      "anonymous": false,
      "inputs": [
        {
          "indexed": true,
          "internalType": "address",
          "name": "from",
          "type": "address"
        },
        {
          "indexed": true,
          "internalType": "address",
          "name": "to",
          "type": "address"
        }
      ],
      "name": "OwnershipTransferRequested",
      "type": "event"
    },
    {
      "anonymous": false,
      "inputs": [
        {
          "indexed": true,
          "internalType": "address",
          "name": "from",
          "type": "address"
        },
        {
          "indexed": true,
          "internalType": "address",
          "name": "to",
          "type": "address"
        }
      ],
      "name": "OwnershipTransferred",
      "type": "event"
    },
    {
      "anonymous": false,
      "inputs": [
        {
          "indexed": false,
          "internalType": "address",
          "name": "rateLimitAdmin",
          "type": "address"
        }
      ],
      "name": "RateLimitAdminSet",
      "type": "event"
    },
    {
      "anonymous": false,
      "inputs": [
        {
          "indexed": true,
          "internalType": "uint64",
          "name": "remoteChainSelector",
          "type": "uint64"
        },
        {
          "indexed": false,
          "internalType": "address",
          "name": "token",
          "type": "address"
        },
        {
          "indexed": false,
          "internalType": "address",
          "name": "sender",
          "type": "address"
        },
        {
          "indexed": false,
          "internalType": "address",
          "name": "recipient",
          "type": "address"
        },
        {
          "indexed": false,
          "internalType": "uint256",
          "name": "amount",
          "type": "uint256"
        }
      ],
      "name": "ReleasedOrMinted",
      "type": "event"
    },
    {
      "anonymous": false,
      "inputs": [
        {
          "indexed": true,
          "internalType": "uint64",
          "name": "remoteChainSelector",
          "type": "uint64"
        },
        {
          "indexed": false,
          "internalType": "bytes",
          "name": "remotePoolAddress",
          "type": "bytes"
        }
      ],
      "name": "RemotePoolAdded",
      "type": "event"
    },
    {
      "anonymous": false,
      "inputs": [
        {
          "indexed": true,
          "internalType": "uint64",
          "name": "remoteChainSelector",
          "type": "uint64"
        },
        {
          "indexed": false,
          "internalType": "bytes",
          "name": "remotePoolAddress",
          "type": "bytes"
        }
      ],
      "name": "RemotePoolRemoved",
      "type": "event"
    },
    {
      "anonymous": false,
      "inputs": [
        {
          "indexed": false,
          "internalType": "address",
          "name": "oldRouter",
          "type": "address"
        },
        {
          "indexed": false,
          "internalType": "address",
          "name": "newRouter",
          "type": "address"
        }
      ],
      "name": "RouterUpdated",
      "type": "event"
    },
    {
      "inputs": [],
      "name": "acceptOwnership",
      "outputs": [],
      "stateMutability": "nonpayable",
      "type": "function"
    },
    {
      "inputs": [
        {
          "internalType": "uint64",
          "name": "remoteChainSelector",
          "type": "uint64"
        },
        {
          "internalType": "bytes",
          "name": "remotePoolAddress",
          "type": "bytes"
        }
      ],
      "name": "addRemotePool",
      "outputs": [],
      "stateMutability": "nonpayable",
      "type": "function"
    },
    {
      "inputs": [
        {
          "internalType": "address[]",
          "name": "removes",
          "type": "address[]"
        },
        {
          "internalType": "address[]",
          "name": "adds",
          "type": "address[]"
        }
      ],
      "name": "applyAllowListUpdates",
      "outputs": [],
      "stateMutability": "nonpayable",
      "type": "function"
    },
    {
      "inputs": [
        {
          "internalType": "uint64[]",
          "name": "remoteChainSelectorsToRemove",
          "type": "uint64[]"
        },
        {
          "components": [
            {
              "internalType": "uint64",
              "name": "remoteChainSelector",
              "type": "uint64"
            },
            {
              "internalType": "bytes[]",
              "name": "remotePoolAddresses",
              "type": "bytes[]"
            },
            {
              "internalType": "bytes",
              "name": "remoteTokenAddress",
              "type": "bytes"
            },
            {
              "components": [
                {
                  "internalType": "bool",
                  "name": "isEnabled",
                  "type": "bool"
                },
                {
                  "internalType": "uint128",
                  "name": "capacity",
                  "type": "uint128"
                },
                {
                  "internalType": "uint128",
                  "name": "rate",
                  "type": "uint128"
                }
              ],
              "internalType": "struct RateLimiter.Config",
              "name": "outboundRateLimiterConfig",
              "type": "tuple"
            },
            {
              "components": [
                {
                  "internalType": "bool",
                  "name": "isEnabled",
                  "type": "bool"
                },
                {
                  "internalType": "uint128",
                  "name": "capacity",
                  "type": "uint128"
                },
                {
                  "internalType": "uint128",
                  "name": "rate",
                  "type": "uint128"
                }
              ],
              "internalType": "struct RateLimiter.Config",
              "name": "inboundRateLimiterConfig",
              "type": "tuple"
            }
          ],
          "internalType": "struct TokenPool.ChainUpdate[]",
          "name": "chainsToAdd",
          "type": "tuple[]"
        }
      ],
      "name": "applyChainUpdates",
      "outputs": [],
      "stateMutability": "nonpayable",
      "type": "function"
    },
    {
      "inputs": [],
      "name": "getAllowList",
      "outputs": [
        {
          "internalType": "address[]",
          "name": "",
          "type": "address[]"
        }
      ],
      "stateMutability": "view",
      "type": "function"
    },
    {
      "inputs": [],
      "name": "getAllowListEnabled",
      "outputs": [
        {
          "internalType": "bool",
          "name": "",
          "type": "bool"
        }
      ],
      "stateMutability": "view",
      "type": "function"
    },
    {
      "inputs": [
        {
          "internalType": "uint64",
          "name": "remoteChainSelector",
          "type": "uint64"
        }
      ],
      "name": "getCurrentInboundRateLimiterState",
      "outputs": [
        {
          "components": [
            {
              "internalType": "uint128",
              "name": "tokens",
              "type": "uint128"
            },
            {
              "internalType": "uint32",
              "name": "lastUpdated",
              "type": "uint32"
            },
            {
              "internalType": "bool",
              "name": "isEnabled",
              "type": "bool"
            },
            {
              "internalType": "uint128",
              "name": "capacity",
              "type": "uint128"
            },
            {
              "internalType": "uint128",
              "name": "rate",
              "type": "uint128"
            }
          ],
          "internalType": "struct RateLimiter.TokenBucket",
          "name": "",
          "type": "tuple"
        }
      ],
      "stateMutability": "view",
      "type": "function"
    },
    {
      "inputs": [
        {
          "internalType": "uint64",
          "name": "remoteChainSelector",
          "type": "uint64"
        }
      ],
      "name": "getCurrentOutboundRateLimiterState",
      "outputs": [
        {
          "components": [
            {
              "internalType": "uint128",
              "name": "tokens",
              "type": "uint128"
            },
            {
              "internalType": "uint32",
              "name": "lastUpdated",
              "type": "uint32"
            },
            {
              "internalType": "bool",
              "name": "isEnabled",
              "type": "bool"
            },
            {
              "internalType": "uint128",
              "name": "capacity",
              "type": "uint128"
            },
            {
              "internalType": "uint128",
              "name": "rate",
              "type": "uint128"
            }
          ],
          "internalType": "struct RateLimiter.TokenBucket",
          "name": "",
          "type": "tuple"
        }
      ],
      "stateMutability": "view",
      "type": "function"
    },
    {
      "inputs": [],
      "name": "getRateLimitAdmin",
      "outputs": [
        {
          "internalType": "address",
          "name": "",
          "type": "address"
        }
      ],
      "stateMutability": "view",
      "type": "function"
    },
    {
      "inputs": [
        {
          "internalType": "uint64",
          "name": "remoteChainSelector",
          "type": "uint64"
        }
      ],
      "name": "getRemotePools",
      "outputs": [
        {
          "internalType": "bytes[]",
          "name": "",
          "type": "bytes[]"
        }
      ],
      "stateMutability": "view",
      "type": "function"
    },
    {
      "inputs": [
        {
          "internalType": "uint64",
          "name": "remoteChainSelector",
          "type": "uint64"
        }
      ],
      "name": "getRemoteToken",
      "outputs": [
        {
          "internalType": "bytes",
          "name": "",
          "type": "bytes"
        }
      ],
      "stateMutability": "view",
      "type": "function"
    },
    {
      "inputs": [],
      "name": "getRmnProxy",
      "outputs": [
        {
          "internalType": "address",
          "name": "rmnProxy",
          "type": "address"
        }
      ],
      "stateMutability": "view",
      "type": "function"
    },
    {
      "inputs": [],
      "name": "getRouter",
      "outputs": [
        {
          "internalType": "address",
          "name": "router",
          "type": "address"
        }
      ],
      "stateMutability": "view",
      "type": "function"
    },
    {
      "inputs": [],
      "name": "getSupportedChains",
      "outputs": [
        {
          "internalType": "uint64[]",
          "name": "",
          "type": "uint64[]"
        }
      ],
      "stateMutability": "view",
      "type": "function"
    },
    {
      "inputs": [],
      "name": "getToken",
      "outputs": [
        {
          "internalType": "contract IERC20",
          "name": "token",
          "type": "address"
        }
      ],
      "stateMutability": "view",
      "type": "function"
    },
    {
      "inputs": [],
      "name": "getTokenDecimals",
      "outputs": [
        {
          "internalType": "uint8",
          "name": "decimals",
          "type": "uint8"
        }
      ],
      "stateMutability": "view",
      "type": "function"
    },
    {
      "inputs": [
        {
          "internalType": "uint64",
          "name": "remoteChainSelector",
          "type": "uint64"
        },
        {
          "internalType": "bytes",
          "name": "remotePoolAddress",
          "type": "bytes"
        }
      ],
      "name": "isRemotePool",
      "outputs": [
        {
          "internalType": "bool",
          "name": "",
          "type": "bool"
        }
      ],
      "stateMutability": "view",
      "type": "function"
    },
    {
      "inputs": [
        {
          "internalType": "uint64",
          "name": "remoteChainSelector",
          "type": "uint64"
        }
      ],
      "name": "isSupportedChain",
      "outputs": [
        {
          "internalType": "bool",
          "name": "",
          "type": "bool"
        }
      ],
      "stateMutability": "view",
      "type": "function"
    },
    {
      "inputs": [
        {
          "internalType": "address",
          "name": "token",
          "type": "address"
        }
      ],
      "name": "isSupportedToken",
      "outputs": [
        {
          "internalType": "bool",
          "name": "",
          "type": "bool"
        }
      ],
      "stateMutability": "view",
      "type": "function"
    },
    {
      "inputs": [
        {
          "components": [
            {
              "internalType": "bytes",
              "name": "receiver",
              "type": "bytes"
            },
            {
              "internalType": "uint64",
              "name": "remoteChainSelector",
              "type": "uint64"
            },
            {
              "internalType": "address",
              "name": "originalSender",
              "type": "address"
            },
            {
              "internalType": "uint256",
              "name": "amount",
              "type": "uint256"
            },
            {
              "internalType": "address",
              "name": "localToken",
              "type": "address"
            }
          ],
          "internalType": "struct Pool.LockOrBurnInV1",
          "name": "lockOrBurnIn",
          "type": "tuple"
        }
      ],
      "name": "lockOrBurn",
      "outputs": [
        {
          "components": [
            {
              "internalType": "bytes",
              "name": "destTokenAddress",
              "type": "bytes"
            },
            {
              "internalType": "bytes",
              "name": "destPoolData",
              "type": "bytes"
            }
          ],
          "internalType": "struct Pool.LockOrBurnOutV1",
          "name": "",
          "type": "tuple"
        }
      ],
      "stateMutability": "nonpayable",
      "type": "function"
    },
    {
      "inputs": [],
      "name": "owner",
      "outputs": [
        {
          "internalType": "address",
          "name": "",
          "type": "address"
        }
      ],
      "stateMutability": "view",
      "type": "function"
    },
    {
      "inputs": [
        {
          "components": [
            {
              "internalType": "bytes",
              "name": "originalSender",
              "type": "bytes"
            },
            {
              "internalType": "uint64",
              "name": "remoteChainSelector",
              "type": "uint64"
            },
            {
              "internalType": "address",
              "name": "receiver",
              "type": "address"
            },
            {
              "internalType": "uint256",
              "name": "sourceDenominatedAmount",
              "type": "uint256"
            },
            {
              "internalType": "address",
              "name": "localToken",
              "type": "address"
            },
            {
              "internalType": "bytes",
              "name": "sourcePoolAddress",
              "type": "bytes"
            },
            {
              "internalType": "bytes",
              "name": "sourcePoolData",
              "type": "bytes"
            },
            {
              "internalType": "bytes",
              "name": "offchainTokenData",
              "type": "bytes"
            }
          ],
          "internalType": "struct Pool.ReleaseOrMintInV1",
          "name": "releaseOrMintIn",
          "type": "tuple"
        }
      ],
      "name": "releaseOrMint",
      "outputs": [
        {
          "components": [
            {
              "internalType": "uint256",
              "name": "destinationAmount",
              "type": "uint256"
            }
          ],
          "internalType": "struct Pool.ReleaseOrMintOutV1",
          "name": "",
          "type": "tuple"
        }
      ],
      "stateMutability": "nonpayable",
      "type": "function"
    },
    {
      "inputs": [
        {
          "internalType": "uint64",
          "name": "remoteChainSelector",
          "type": "uint64"
        },
        {
          "internalType": "bytes",
          "name": "remotePoolAddress",
          "type": "bytes"
        }
      ],
      "name": "removeRemotePool",
      "outputs": [],
      "stateMutability": "nonpayable",
      "type": "function"
    },
    {
      "inputs": [
        {
          "internalType": "uint64",
          "name": "remoteChainSelector",
          "type": "uint64"
        },
        {
          "components": [
            {
              "internalType": "bool",
              "name": "isEnabled",
              "type": "bool"
            },
            {
              "internalType": "uint128",
              "name": "capacity",
              "type": "uint128"
            },
            {
              "internalType": "uint128",
              "name": "rate",
              "type": "uint128"
            }
          ],
          "internalType": "struct RateLimiter.Config",
          "name": "outboundConfig",
          "type": "tuple"
        },
        {
          "components": [
            {
              "internalType": "bool",
              "name": "isEnabled",
              "type": "bool"
            },
            {
              "internalType": "uint128",
              "name": "capacity",
              "type": "uint128"
            },
            {
              "internalType": "uint128",
              "name": "rate",
              "type": "uint128"
            }
          ],
          "internalType": "struct RateLimiter.Config",
          "name": "inboundConfig",
          "type": "tuple"
        }
      ],
      "name": "setChainRateLimiterConfig",
      "outputs": [],
      "stateMutability": "nonpayable",
      "type": "function"
    },
    {
      "inputs": [
        {
          "internalType": "uint64[]",
          "name": "remoteChainSelectors",
          "type": "uint64[]"
        },
        {
          "components": [
            {
              "internalType": "bool",
              "name": "isEnabled",
              "type": "bool"
            },
            {
              "internalType": "uint128",
              "name": "capacity",
              "type": "uint128"
            },
            {
              "internalType": "uint128",
              "name": "rate",
              "type": "uint128"
            }
          ],
          "internalType": "struct RateLimiter.Config[]",
          "name": "outboundConfigs",
          "type": "tuple[]"
        },
        {
          "components": [
            {
              "internalType": "bool",
              "name": "isEnabled",
              "type": "bool"
            },
            {
              "internalType": "uint128",
              "name": "capacity",
              "type": "uint128"
            },
            {
              "internalType": "uint128",
              "name": "rate",
              "type": "uint128"
            }
          ],
          "internalType": "struct RateLimiter.Config[]",
          "name": "inboundConfigs",
          "type": "tuple[]"
        }
      ],
      "name": "setChainRateLimiterConfigs",
      "outputs": [],
      "stateMutability": "nonpayable",
      "type": "function"
    },
    {
      "inputs": [
        {
          "internalType": "address",
          "name": "rateLimitAdmin",
          "type": "address"
        }
      ],
      "name": "setRateLimitAdmin",
      "outputs": [],
      "stateMutability": "nonpayable",
      "type": "function"
    },
    {
      "inputs": [
        {
          "internalType": "address",
          "name": "newRouter",
          "type": "address"
        }
      ],
      "name": "setRouter",
      "outputs": [],
      "stateMutability": "nonpayable",
      "type": "function"
    },
    {
      "inputs": [
        {
          "internalType": "bytes4",
          "name": "interfaceId",
          "type": "bytes4"
        }
      ],
      "name": "supportsInterface",
      "outputs": [
        {
          "internalType": "bool",
          "name": "",
          "type": "bool"
        }
      ],
      "stateMutability": "pure",
      "type": "function"
    },
    {
      "inputs": [
        {
          "internalType": "address",
          "name": "to",
          "type": "address"
        }
      ],
      "name": "transferOwnership",
      "outputs": [],
      "stateMutability": "nonpayable",
      "type": "function"
    },
    {
      "inputs": [],
      "name": "typeAndVersion",
      "outputs": [
        {
          "internalType": "string",
          "name": "",
          "type": "string"
        }
      ],
      "stateMutability": "view",
      "type": "function"
    }
  ],
  "bytecode": "0x610100604052348015610010575f5ffd5b50604051613d65380380613d6583398101604081905261002f9161053b565b8484848484335f8161005457604051639b15e16f60e01b815260040160405180910390fd5b600180546001600160a01b0319166001600160a01b038481169190911790915581161561008457610084816101d3565b50506001600160a01b03851615806100a357506001600160a01b038116155b806100b557506001600160a01b038216155b156100d357604051630a64406560e11b815260040160405180910390fd5b6001600160a01b03808616608081905290831660c0526040805163313ce56760e01b8152905163313ce567916004808201926020929091908290030181865afa925050508015610140575060408051601f3d908101601f1916820190925261013d9181019061064a565b60015b1561017e578060ff168560ff161461017c576040516332ad3e0760e11b815260ff80871660048301528216602482015260440160405180910390fd5b505b60ff841660a052600480546001600160a01b0319166001600160a01b038316179055825115801560e0526101c457604080515f8152602081019091526101c4908461024b565b505050505050505050506106aa565b336001600160a01b038216036101fc57604051636d6c4ee560e11b815260040160405180910390fd5b5f80546001600160a01b0319166001600160a01b03838116918217835560015460405192939116917fed8889f560326eb138920d842192f0eb3dd22b4f139c87a2c57538e05bae12789190a350565b60e05161026b576040516335f4a7b360e01b815260040160405180910390fd5b5f5b82518110156102ec575f83828151811061028957610289610663565b602090810291909101015190506102a1600282610390565b156102e3576040516001600160a01b03821681527f800671136ab6cfee9fbe5ed1fb7ca417811aca3cf864800d127b927adedf75669060200160405180910390a15b5060010161026d565b505f5b815181101561038b575f82828151811061030b5761030b610663565b602002602001015190505f6001600160a01b0316816001600160a01b0316036103345750610383565b61033f6002826103ad565b15610381576040516001600160a01b03821681527f2640d4d76caf8bf478aabfa982fa4e1c4eb71a37f93cd15e80dbc657911546d89060200160405180910390a15b505b6001016102ef565b505050565b5f6103a4836001600160a01b0384166103c1565b90505b92915050565b5f6103a4836001600160a01b0384166104a4565b5f818152600183016020526040812054801561049b575f6103e3600183610677565b85549091505f906103f690600190610677565b9050808214610455575f865f01828154811061041457610414610663565b905f5260205f200154905080875f01848154811061043457610434610663565b5f918252602080832090910192909255918252600188019052604090208390555b855486908061046657610466610696565b600190038181905f5260205f20015f90559055856001015f8681526020019081526020015f205f9055600193505050506103a7565b5f9150506103a7565b5f8181526001830160205260408120546104e957508154600181810184555f8481526020808220909301849055845484825282860190935260409020919091556103a7565b505f6103a7565b6001600160a01b0381168114610504575f5ffd5b50565b805160ff81168114610517575f5ffd5b919050565b634e487b7160e01b5f52604160045260245ffd5b8051610517816104f0565b5f5f5f5f5f60a0868803121561054f575f5ffd5b855161055a816104f0565b945061056860208701610507565b60408701519094506001600160401b03811115610583575f5ffd5b8601601f81018813610593575f5ffd5b80516001600160401b038111156105ac576105ac61051c565b604051600582901b90603f8201601f191681016001600160401b03811182821017156105da576105da61051c565b60405291825260208184018101929081018b8411156105f7575f5ffd5b6020850194505b8385101561061d5761060f85610530565b8152602094850194016105fe565b5095506106309250505060608701610530565b915061063e60808701610530565b90509295509295909350565b5f6020828403121561065a575f5ffd5b6103a482610507565b634e487b7160e01b5f52603260045260245ffd5b818103818111156103a757634e487b7160e01b5f52601160045260245ffd5b634e487b7160e01b5f52603160045260245ffd5b60805160a05160c05160e0516135f56107705f395f818161052a01528181611a80015261238f01525f81816105040152818161183e0152611d9e01525f81816102c701528181610b180152818161159d015281816116230152818161165701528181611689015281816116d50152818161172d015261179701525f8181610248015281816102900152818161068b01528181610a7a015281816119df01528181611ec2015281816121b9015281816121eb015281816124dc015261250e01526135f55ff3fe608060405234801561000f575f5ffd5b50600436106101d1575f3560e01c80639a4575b9116100fe578063c0d786551161009e578063dc0bd9711161006e578063dc0bd97114610502578063e0351e1314610528578063e8a1da171461054e578063f2fde38b14610561575f5ffd5b8063c0d78655146104b4578063c4bffe2b146104c7578063c75eea9c146104dc578063cf7401f3146104ef575f5ffd5b8063acfecf91116100d9578063acfecf9114610406578063af58d59f14610419578063b0f479a114610490578063b7946580146104a1575f5ffd5b80639a4575b9146103b1578063a42a7b8b146103d1578063a7cd63b7146103f1575f5ffd5b806354c8a4f3116101745780637d54534e116101445780637d54534e146103675780638926f54f1461037a5780638da5cb5b1461038d578063962d40201461039e575f5ffd5b806354c8a4f31461032657806362ddd3c41461033b5780636d3d1a581461034e57806379ba50971461035f575f5ffd5b8063240028e8116101af578063240028e81461028057806324f65ee7146102c057806339077537146102f15780634c5ef0ed14610313575f5ffd5b806301ffc9a7146101d5578063181f5a77146101fd57806321df0da714610246575b5f5ffd5b6101e86101e336600461295f565b610574565b60405190151581526020015b60405180910390f35b6102396040518060400160405280601b81526020017f4275726e4d696e74546f6b656e506f6f6c20312e362e332d646576000000000081525081565b6040516101f491906129b4565b7f00000000000000000000000000000000000000000000000000000000000000005b6040516001600160a01b0390911681526020016101f4565b6101e861028e3660046129da565b7f00000000000000000000000000000000000000000000000000000000000000006001600160a01b0390811691161490565b60405160ff7f00000000000000000000000000000000000000000000000000000000000000001681526020016101f4565b6103046102ff3660046129f5565b6105c5565b604051905181526020016101f4565b6101e8610321366004612b1e565b610700565b610339610334366004612baf565b610738565b005b610339610349366004612c19565b6107b1565b6009546001600160a01b0316610268565b610339610833565b6103396103753660046129da565b6108b4565b6101e8610388366004612c95565b610910565b6001546001600160a01b0316610268565b6103396103ac366004612cee565b610925565b6103c46103bf366004612d8a565b610a32565b6040516101f49190612dc0565b6103e46103df366004612c95565b610b5d565b6040516101f49190612df8565b6103f9610cbf565b6040516101f49190612e5b565b610339610414366004612c19565b610cd0565b61042c610427366004612c95565b610db2565b6040516101f491905f60a0820190506001600160801b03835116825263ffffffff60208401511660208301526040830151151560408301526001600160801b0360608401511660608301526001600160801b03608084015116608083015292915050565b6004546001600160a01b0316610268565b6102396104af366004612c95565b610e5d565b6103396104c23660046129da565b610f09565b6104cf610f99565b6040516101f49190612ea6565b61042c6104ea366004612c95565b61104c565b6103396104fd366004612f77565b6110f4565b7f0000000000000000000000000000000000000000000000000000000000000000610268565b7f00000000000000000000000000000000000000000000000000000000000000006101e8565b61033961055c366004612baf565b611145565b61033961056f3660046129da565b61157d565b5f6001600160e01b0319821663aff2afbf60e01b14806105a457506001600160e01b03198216630e64dd2960e01b145b806105bf57506001600160e01b031982166301ffc9a760e01b145b92915050565b60408051602081019091525f81525f61062a60608401356106256105ec60c0870187612fb9565b8080601f0160208091040260200160405190810160405280939291908181526020018383808284375f9201919091525061159192505050565b611620565b905061063683826117e8565b61064f61064960608501604086016129da565b826119b9565b61065f6040840160208501612c95565b6001600160401b03167ffc5e3a5bddc11d92c2dc20fae6f7d5eb989f056be35239f7de7e86150609abc07f0000000000000000000000000000000000000000000000000000000000000000336106bb60608801604089016129da565b604080516001600160a01b03948516815292841660208401529216818301526060810185905290519081900360800190a2604080516020810190915290815292915050565b80516020808301919091206001600160401b0384165f90815260079092526040822061073191600590910190611a3a565b9392505050565b610740611a51565b6107ab8484808060200260200160405190810160405280939291908181526020018383602002808284375f92019190915250506040805160208088028281018201909352878252909350879250869182918501908490808284375f92019190915250611a7e92505050565b50505050565b6107b9611a51565b6107c283610910565b6107ef57604051631e670e4b60e01b81526001600160401b03841660048201526024015b60405180910390fd5b61082e8383838080601f0160208091040260200160405190810160405280939291908181526020018383808284375f92019190915250611be292505050565b505050565b5f546001600160a01b0316331461085d5760405163015aa1e360e11b815260040160405180910390fd5b600180546001600160a01b0319808216339081179093555f805490911681556040516001600160a01b03909216929183917f8be0079c531659141344cd1fd0a4f28419497f9722a3daafe3b4186f6b6457e091a350565b6108bc611a51565b600980546001600160a01b0319166001600160a01b0383169081179091556040519081527f44676b5284b809a22248eba0da87391d79098be38bb03154be88a58bf4d091749060200160405180910390a150565b5f6105bf60056001600160401b038416611a3a565b6009546001600160a01b0316331480159061094b57506001546001600160a01b03163314155b1561096b5760405163472511eb60e11b81523360048201526024016107e6565b848314158061097a5750848114155b1561099857604051632b477e7160e11b815260040160405180910390fd5b5f5b85811015610a2957610a218787838181106109b7576109b7612ffb565b90506020020160208101906109cc9190612c95565b8686848181106109de576109de612ffb565b9050606002018036038101906109f4919061300f565b858585818110610a0657610a06612ffb565b905060600201803603810190610a1c919061300f565b611ca5565b60010161099a565b50505050505050565b6040805180820190915260608082526020820152610a4f82611d6d565b610a5c8260600135611eac565b610a6c6040830160208401612c95565b604080516001600160a01b037f0000000000000000000000000000000000000000000000000000000000000000168152336020820152606080860135928201929092526001600160401b0392909216917ff33bc26b4413b0e7f19f1ea739fdf99098c0061f1f87d954b11f5293fad9ae10910160405180910390a26040518060400160405280610b088460200160208101906104af9190612c95565b8152602001610b556040805160ff7f000000000000000000000000000000000000000000000000000000000000000016602082015260609101604051602081830303815290604052905090565b905292915050565b6001600160401b0381165f90815260076020526040812060609190610b8490600501611f1d565b90505f81516001600160401b03811115610ba057610ba0612a47565b604051908082528060200260200182016040528015610bd357816020015b6060815260200190600190039081610bbe5790505b5090505f5b8251811015610cb75760085f848381518110610bf657610bf6612ffb565b602002602001015181526020019081526020015f208054610c1690613029565b80601f0160208091040260200160405190810160405280929190818152602001828054610c4290613029565b8015610c8d5780601f10610c6457610100808354040283529160200191610c8d565b820191905f5260205f20905b815481529060010190602001808311610c7057829003601f168201915b5050505050828281518110610ca457610ca4612ffb565b6020908102919091010152600101610bd8565b509392505050565b6060610ccb6002611f1d565b905090565b610cd8611a51565b610ce183610910565b610d0957604051631e670e4b60e01b81526001600160401b03841660048201526024016107e6565b610d478282604051610d1c929190613061565b60408051918290039091206001600160401b0386165f90815260076020529190912060050190611f29565b610d6a57828282604051631d3c8f1f60e21b81526004016107e693929190613098565b826001600160401b03167f52d00ee4d9bd51b40168f2afc5848837288ce258784ad914278791464b3f4d768383604051610da59291906130ba565b60405180910390a2505050565b6040805160a0810182525f808252602082018190529181018290526060810182905260808101919091526001600160401b0382165f90815260076020908152604091829020825160a08101845260028201546001600160801b038082168352600160801b80830463ffffffff1695840195909552600160a01b90910460ff1615159482019490945260039091015480841660608301529190910490911660808201526105bf90611f34565b6001600160401b0381165f908152600760205260409020600401805460609190610e8690613029565b80601f0160208091040260200160405190810160405280929190818152602001828054610eb290613029565b8015610efd5780601f10610ed457610100808354040283529160200191610efd565b820191905f5260205f20905b815481529060010190602001808311610ee057829003601f168201915b50505050509050919050565b610f11611a51565b6001600160a01b038116610f3857604051630a64406560e11b815260040160405180910390fd5b600480546001600160a01b038381166001600160a01b031983168117909355604080519190921680825260208201939093527f02dc5c233404867c793b749c6d644beb2277536d18a7e7974d3f238e4c6f1684910160405180910390a15050565b60605f610fa66005611f1d565b90505f81516001600160401b03811115610fc257610fc2612a47565b604051908082528060200260200182016040528015610feb578160200160208202803683370190505b5090505f5b82518110156110455782818151811061100b5761100b612ffb565b602002602001015182828151811061102557611025612ffb565b6001600160401b0390921660209283029190910190910152600101610ff0565b5092915050565b6040805160a0810182525f808252602082018190529181018290526060810182905260808101919091526001600160401b0382165f90815260076020908152604091829020825160a08101845281546001600160801b038082168352600160801b80830463ffffffff1695840195909552600160a01b90910460ff1615159482019490945260019091015480841660608301529190910490911660808201526105bf90611f34565b6009546001600160a01b0316331480159061111a57506001546001600160a01b03163314155b1561113a5760405163472511eb60e11b81523360048201526024016107e6565b61082e838383611ca5565b61114d611a51565b5f5b838110156112fa575f85858381811061116a5761116a612ffb565b905060200201602081019061117f9190612c95565b905061119560056001600160401b038316611f29565b6111bd57604051631e670e4b60e01b81526001600160401b03821660048201526024016107e6565b6001600160401b0381165f9081526007602052604081206111e090600501611f1d565b90505f5b81518110156112475761123e82828151811061120257611202612ffb565b602002602001015160075f866001600160401b03166001600160401b031681526020019081526020015f20600501611f2990919063ffffffff16565b506001016111e4565b506001600160401b0382165f90815260076020526040812080546001600160a81b03199081168255600182018390556002820180549091169055600381018290559061129660048301826128f9565b600582015f81816112a78282612930565b50506040516001600160401b03871681527f5204aec90a3c794d8e90fded8b46ae9c7c552803e7e832e0c1d358396d859916945060200192506112e8915050565b60405180910390a1505060010161114f565b505f5b81811015611576575f83838381811061131857611318612ffb565b905060200281019061132a91906130cd565b611333906130ec565b90506113428160600151611fc0565b61134f8160800151611fc0565b8060400151515f0361137457604051630a64406560e11b815260040160405180910390fd5b805161138b906005906001600160401b031661204b565b6113b6578051604051631d5ad3c560e01b81526001600160401b0390911660048201526024016107e6565b80516001600160401b03165f90815260076020908152604091829020825160a08082018552606080870180518601516001600160801b0390811680865263ffffffff42168689018190528351511515878b0181905284518a0151841686890181905294518b0151841660809889018190528954600160a01b92830260ff60a01b19600160801b8087026001600160a01b031994851690981788178216929092178d5592810290971760018c01558c519889018d52898e0180518d01518716808b528a8e019590955280515115158a8f018190528151909d01518716988a01899052518d0151909516979098018790526002890180549a9091029990931617179094169590951790925590920290911760038201559082015160048201906114dd9082613262565b505f5b82602001515181101561151f57611517835f01518460200151838151811061150a5761150a612ffb565b6020026020010151611be2565b6001016114e0565b507f8d340f17e19058004c20453540862a9c62778504476f6756755cb33bcd6c38c2825f0151836040015184606001518560800151604051611564949392919061334c565b60405180910390a150506001016112fd565b5050505050565b611585611a51565b61158e81612056565b50565b5f81515f036115c157507f0000000000000000000000000000000000000000000000000000000000000000919050565b81516020146115e5578160405163953576f760e01b81526004016107e691906129b4565b5f828060200190518101906115fa919061338b565b905060ff8111156105bf578260405163953576f760e01b81526004016107e691906129b4565b5f7f000000000000000000000000000000000000000000000000000000000000000060ff168260ff16036116555750816105bf565b7f000000000000000000000000000000000000000000000000000000000000000060ff168260ff161115611726575f6116ae7f0000000000000000000000000000000000000000000000000000000000000000846133b6565b9050604d8160ff1611156117095760405163a9cb113d60e01b815260ff80851660048301527f0000000000000000000000000000000000000000000000000000000000000000166024820152604481018590526064016107e6565b61171481600a6134b2565b61171e90856134c0565b9150506105bf565b5f611751837f00000000000000000000000000000000000000000000000000000000000000006133b6565b9050604d8160ff161180611779575061176b81600a6134b2565b611776905f196134c0565b84115b156117cb5760405163a9cb113d60e01b815260ff80851660048301527f0000000000000000000000000000000000000000000000000000000000000000166024820152604481018590526064016107e6565b6117d681600a6134b2565b6117e090856134df565b949350505050565b6117fb61028e60a08401608085016129da565b6118345761180f60a08301608084016129da565b60405163961c9a4f60e01b81526001600160a01b0390911660048201526024016107e6565b6001600160a01b037f000000000000000000000000000000000000000000000000000000000000000016632cbc26bb6118736040850160208601612c95565b60405160e083901b6001600160e01b031916815260809190911b67ffffffffffffffff60801b166004820152602401602060405180830381865afa1580156118bd573d5f5f3e3d5ffd5b505050506040513d601f19601f820116820180604052508101906118e191906134f6565b156118ff57604051630a75a23b60e31b815260040160405180910390fd5b6119176119126040840160208501612c95565b6120ce565b61197061192a6040840160208501612c95565b61193760a0850185612fb9565b8080601f0160208091040260200160405190810160405280939291908181526020018383808284375f9201919091525061070092505050565b61199c5761198160a0830183612fb9565b6040516324eb47e560e01b81526004016107e69291906130ba565b6119b56119af6040840160208501612c95565b82612198565b5050565b6040516340c10f1960e01b81526001600160a01b038381166004830152602482018390527f000000000000000000000000000000000000000000000000000000000000000016906340c10f19906044015f604051808303815f87803b158015611a20575f5ffd5b505af1158015611a32573d5f5f3e3d5ffd5b505050505050565b5f8181526001830160205260408120541515610731565b6001546001600160a01b03163314611a7c576040516315ae3a6f60e11b815260040160405180910390fd5b565b7f0000000000000000000000000000000000000000000000000000000000000000611abc576040516335f4a7b360e01b815260040160405180910390fd5b5f5b8251811015611b43575f838281518110611ada57611ada612ffb565b60200260200101519050611af881600261224f90919063ffffffff16565b15611b3a576040516001600160a01b03821681527f800671136ab6cfee9fbe5ed1fb7ca417811aca3cf864800d127b927adedf75669060200160405180910390a15b50600101611abe565b505f5b815181101561082e575f828281518110611b6257611b62612ffb565b602002602001015190505f6001600160a01b0316816001600160a01b031603611b8b5750611bda565b611b96600282612263565b15611bd8576040516001600160a01b03821681527f2640d4d76caf8bf478aabfa982fa4e1c4eb71a37f93cd15e80dbc657911546d89060200160405180910390a15b505b600101611b46565b80515f03611c0357604051630a64406560e11b815260040160405180910390fd5b80516020808301919091206001600160401b0384165f90815260079092526040909120611c33906005018261204b565b611c54578282604051631c9dc56960e11b81526004016107e6929190613511565b5f818152600860205260409020611c6b8382613262565b50826001600160401b03167f7d628c9a1796743d365ab521a8b2a4686e419b3269919dc9145ea2ce853b54ea83604051610da591906129b4565b611cae83610910565b611cd657604051631e670e4b60e01b81526001600160401b03841660048201526024016107e6565b611cdf82611fc0565b6001600160401b0383165f908152600760205260409020611d009083612277565b611d0981611fc0565b6001600160401b0383165f908152600760205260409020611d2d9060020182612277565b7f0350d63aa5f270e01729d00d627eeb8f3429772b1818c016c66a588a864f912b838383604051611d6093929190613532565b60405180910390a1505050565b611d8061028e60a08301608084016129da565b611d945761180f60a08201608083016129da565b6001600160a01b037f000000000000000000000000000000000000000000000000000000000000000016632cbc26bb611dd36040840160208501612c95565b60405160e083901b6001600160e01b031916815260809190911b67ffffffffffffffff60801b166004820152602401602060405180830381865afa158015611e1d573d5f5f3e3d5ffd5b505050506040513d601f19601f82011682018060405250810190611e4191906134f6565b15611e5f57604051630a75a23b60e31b815260040160405180910390fd5b611e77611e7260608301604084016129da565b61238d565b611e8f611e8a6040830160208401612c95565b6123e6565b61158e611ea26040830160208401612c95565b82606001356124be565b604051630852cd8d60e31b8152600481018290527f00000000000000000000000000000000000000000000000000000000000000006001600160a01b0316906342966c68906024015f604051808303815f87803b158015611f0b575f5ffd5b505af1158015611576573d5f5f3e3d5ffd5b60605f6107318361256a565b5f61073183836125c2565b6040805160a0810182525f80825260208201819052918101829052606081018290526080810191909152611fa582606001516001600160801b0316835f01516001600160801b0316846020015163ffffffff1642611f92919061355c565b85608001516001600160801b03166126a5565b6001600160801b031682525063ffffffff4216602082015290565b8051156120045780602001516001600160801b031681604001516001600160801b0316111561158e5780604051632008344960e21b81526004016107e6919061356f565b60408101516001600160801b031615158061202b575060208101516001600160801b031615155b1561158e57806040516335a2be7360e21b81526004016107e6919061356f565b5f61073183836126cc565b336001600160a01b0382160361207f57604051636d6c4ee560e11b815260040160405180910390fd5b5f80546001600160a01b0319166001600160a01b03838116918217835560015460405192939116917fed8889f560326eb138920d842192f0eb3dd22b4f139c87a2c57538e05bae12789190a350565b6120d781610910565b6120ff576040516354c8163f60e11b81526001600160401b03821660048201526024016107e6565b600480546040516383826b2b60e01b81526001600160401b038416928101929092523360248301526001600160a01b0316906383826b2b90604401602060405180830381865afa158015612155573d5f5f3e3d5ffd5b505050506040513d601f19601f8201168201806040525081019061217991906134f6565b61158e5760405163728fe07b60e01b81523360048201526024016107e6565b6001600160401b0382165f9081526007602052604090206121dd90600201827f0000000000000000000000000000000000000000000000000000000000000000612718565b604080516001600160a01b037f0000000000000000000000000000000000000000000000000000000000000000168152602081018390526001600160401b038416917f50f6fbee3ceedce6b7fd7eaef18244487867e6718aec7208187efb6b7908c14c91015b60405180910390a25050565b5f610731836001600160a01b0384166125c2565b5f610731836001600160a01b0384166126cc565b81545f9061229290600160801b900463ffffffff164261355c565b905080156122f057600183015483546122c4916001600160801b03808216928116918591600160801b909104166126a5565b83546001600160801b03919091166001600160a01b031990911617600160801b4263ffffffff16021783555b6020820151835461230d916001600160801b0390811691166128c3565b835483511515600160a01b0274ff00000000ffffffffffffffffffffffffffffffff199091166001600160801b039283161717845560208301516040808501518316600160801b0291909216176001850155517f9ea3374b67bf275e6bb9c8ae68f9cae023e1c528b4b27e092f0bb209d3531c1990611d6090849061356f565b7f00000000000000000000000000000000000000000000000000000000000000001561158e576123be6002826128d8565b61158e576040516368692cbb60e11b81526001600160a01b03821660048201526024016107e6565b6123ef81610910565b612417576040516354c8163f60e11b81526001600160401b03821660048201526024016107e6565b6004805460405163a8d87a3b60e01b81526001600160401b038416928101929092526001600160a01b03169063a8d87a3b90602401602060405180830381865afa158015612467573d5f5f3e3d5ffd5b505050506040513d601f19601f8201168201806040525081019061248b919061357d565b6001600160a01b0316336001600160a01b03161461158e5760405163728fe07b60e01b81523360048201526024016107e6565b6001600160401b0382165f90815260076020526040902061250090827f0000000000000000000000000000000000000000000000000000000000000000612718565b604080516001600160a01b037f0000000000000000000000000000000000000000000000000000000000000000168152602081018390526001600160401b038416917fff0133389f9bb82d5b9385826160eaf2328039f6fa950eeb8cf0836da81789449101612243565b6060815f01805480602002602001604051908101604052809291908181526020018280548015610efd57602002820191905f5260205f20905b8154815260200190600101908083116125a35750505050509050919050565b5f818152600183016020526040812054801561269c575f6125e460018361355c565b85549091505f906125f79060019061355c565b9050808214612656575f865f01828154811061261557612615612ffb565b905f5260205f200154905080875f01848154811061263557612635612ffb565b5f918252602080832090910192909255918252600188019052604090208390555b855486908061266757612667613598565b600190038181905f5260205f20015f90559055856001015f8681526020019081526020015f205f9055600193505050506105bf565b5f9150506105bf565b5f6126c3856126b484866134df565b6126be90876135ac565b6128c3565b95945050505050565b5f81815260018301602052604081205461271157508154600181810184555f8481526020808220909301849055845484825282860190935260409020919091556105bf565b505f6105bf565b8254600160a01b900460ff16158061272e575081155b1561273857505050565b825460018401546001600160801b03808316929116905f9061276790600160801b900463ffffffff164261355c565b905080156127d3578183111561279057604051634b92ca1560e11b815260040160405180910390fd5b60018601546127b490839085908490600160801b90046001600160801b03166126a5565b865463ffffffff60801b1916600160801b4263ffffffff160217875592505b8482101561280d57604051630d3b2b9560e11b815260048101839052602481018690526001600160a01b03851660448201526064016107e6565b8483101561288d57600186810154600160801b90046001600160801b0316905f90829061283a908261355c565b612844878a61355c565b61284e91906135ac565b61285891906134c0565b604051636864691d60e11b815260048101829052602481018790526001600160a01b03881660448201529091506064016107e6565b612897858461355c565b86546fffffffffffffffffffffffffffffffff19166001600160801b0391909116179095555050505050565b5f8183106128d15781610731565b5090919050565b6001600160a01b0381165f9081526001830160205260408120541515610731565b50805461290590613029565b5f825580601f10612914575050565b601f0160209004905f5260205f209081019061158e9190612947565b5080545f8255905f5260205f209081019061158e91905b5b8082111561295b575f8155600101612948565b5090565b5f6020828403121561296f575f5ffd5b81356001600160e01b031981168114610731575f5ffd5b5f81518084528060208401602086015e5f602082860101526020601f19601f83011685010191505092915050565b602081525f6107316020830184612986565b6001600160a01b038116811461158e575f5ffd5b5f602082840312156129ea575f5ffd5b8135610731816129c6565b5f60208284031215612a05575f5ffd5b81356001600160401b03811115612a1a575f5ffd5b82016101008185031215610731575f5ffd5b80356001600160401b0381168114612a42575f5ffd5b919050565b634e487b7160e01b5f52604160045260245ffd5b60405160a081016001600160401b0381118282101715612a7d57612a7d612a47565b60405290565b604051601f8201601f191681016001600160401b0381118282101715612aab57612aab612a47565b604052919050565b5f82601f830112612ac2575f5ffd5b81356001600160401b03811115612adb57612adb612a47565b612aee601f8201601f1916602001612a83565b818152846020838601011115612b02575f5ffd5b816020850160208301375f918101602001919091529392505050565b5f5f60408385031215612b2f575f5ffd5b612b3883612a2c565b915060208301356001600160401b03811115612b52575f5ffd5b612b5e85828601612ab3565b9150509250929050565b5f5f83601f840112612b78575f5ffd5b5081356001600160401b03811115612b8e575f5ffd5b6020830191508360208260051b8501011115612ba8575f5ffd5b9250929050565b5f5f5f5f60408587031215612bc2575f5ffd5b84356001600160401b03811115612bd7575f5ffd5b612be387828801612b68565b90955093505060208501356001600160401b03811115612c01575f5ffd5b612c0d87828801612b68565b95989497509550505050565b5f5f5f60408486031215612c2b575f5ffd5b612c3484612a2c565b925060208401356001600160401b03811115612c4e575f5ffd5b8401601f81018613612c5e575f5ffd5b80356001600160401b03811115612c73575f5ffd5b866020828401011115612c84575f5ffd5b939660209190910195509293505050565b5f60208284031215612ca5575f5ffd5b61073182612a2c565b5f5f83601f840112612cbe575f5ffd5b5081356001600160401b03811115612cd4575f5ffd5b602083019150836020606083028501011115612ba8575f5ffd5b5f5f5f5f5f5f60608789031215612d03575f5ffd5b86356001600160401b03811115612d18575f5ffd5b612d2489828a01612b68565b90975095505060208701356001600160401b03811115612d42575f5ffd5b612d4e89828a01612cae565b90955093505060408701356001600160401b03811115612d6c575f5ffd5b612d7889828a01612cae565b979a9699509497509295939492505050565b5f60208284031215612d9a575f5ffd5b81356001600160401b03811115612daf575f5ffd5b820160a08185031215610731575f5ffd5b602081525f825160406020840152612ddb6060840182612986565b90506020840151601f198483030160408501526126c38282612986565b5f602082016020835280845180835260408501915060408160051b8601019250602086015f5b82811015612e4f57603f19878603018452612e3a858351612986565b94506020938401939190910190600101612e1e565b50929695505050505050565b602080825282518282018190525f918401906040840190835b81811015612e9b5783516001600160a01b0316835260209384019390920191600101612e74565b509095945050505050565b602080825282518282018190525f918401906040840190835b81811015612e9b5783516001600160401b0316835260209384019390920191600101612ebf565b801515811461158e575f5ffd5b80356001600160801b0381168114612a42575f5ffd5b5f60608284031215612f19575f5ffd5b604051606081016001600160401b0381118282101715612f3b57612f3b612a47565b6040529050808235612f4c81612ee6565b8152612f5a60208401612ef3565b6020820152612f6b60408401612ef3565b60408201525092915050565b5f5f5f60e08486031215612f89575f5ffd5b612f9284612a2c565b9250612fa18560208601612f09565b9150612fb08560808601612f09565b90509250925092565b5f5f8335601e19843603018112612fce575f5ffd5b8301803591506001600160401b03821115612fe7575f5ffd5b602001915036819003821315612ba8575f5ffd5b634e487b7160e01b5f52603260045260245ffd5b5f6060828403121561301f575f5ffd5b6107318383612f09565b600181811c9082168061303d57607f821691505b60208210810361305b57634e487b7160e01b5f52602260045260245ffd5b50919050565b818382375f9101908152919050565b81835281816020850137505f828201602090810191909152601f909101601f19169091010190565b6001600160401b0384168152604060208201525f6126c3604083018486613070565b602081525f6117e0602083018486613070565b5f823561011e198336030181126130e2575f5ffd5b9190910192915050565b5f61012082360312156130fd575f5ffd5b613105612a5b565b61310e83612a2c565b815260208301356001600160401b03811115613128575f5ffd5b830136601f820112613138575f5ffd5b80356001600160401b0381111561315157613151612a47565b8060051b61316160208201612a83565b9182526020818401810192908101903684111561317c575f5ffd5b6020850192505b838310156131c15782356001600160401b038111156131a0575f5ffd5b6131af36602083890101612ab3565b83525060209283019290910190613183565b60208601525050505060408301356001600160401b038111156131e2575f5ffd5b6131ee36828601612ab3565b6040830152506132013660608501612f09565b60608201526132133660c08501612f09565b608082015292915050565b601f82111561082e57805f5260205f20601f840160051c810160208510156132435750805b601f840160051c820191505b81811015611576575f815560010161324f565b81516001600160401b0381111561327b5761327b612a47565b61328f816132898454613029565b8461321e565b6020601f8211600181146132c1575f83156132aa5750848201515b5f19600385901b1c1916600184901b178455611576565b5f84815260208120601f198516915b828110156132f057878501518255602094850194600190920191016132d0565b508482101561330d57868401515f19600387901b60f8161c191681555b50505050600190811b01905550565b8051151582526001600160801b0360208201511660208301526001600160801b0360408201511660408301525050565b6001600160401b038516815261010060208201525f61336f610100830186612986565b905061337e604083018561331c565b6126c360a083018461331c565b5f6020828403121561339b575f5ffd5b5051919050565b634e487b7160e01b5f52601160045260245ffd5b60ff82811682821603908111156105bf576105bf6133a2565b6001815b600184111561340a578085048111156133ee576133ee6133a2565b60018416156133fc57908102905b60019390931c9280026133d3565b935093915050565b5f82613420575060016105bf565b8161342c57505f6105bf565b8160018114613442576002811461344c57613468565b60019150506105bf565b60ff84111561345d5761345d6133a2565b50506001821b6105bf565b5060208310610133831016604e8410600b841016171561348b575081810a6105bf565b6134975f1984846133cf565b805f19048211156134aa576134aa6133a2565b029392505050565b5f61073160ff841683613412565b5f826134da57634e487b7160e01b5f52601260045260245ffd5b500490565b80820281158282048414176105bf576105bf6133a2565b5f60208284031215613506575f5ffd5b815161073181612ee6565b6001600160401b0383168152604060208201525f6117e06040830184612986565b6001600160401b038416815260e0810161354f602083018561331c565b6117e0608083018461331c565b818103818111156105bf576105bf6133a2565b606081016105bf828461331c565b5f6020828403121561358d575f5ffd5b8151610731816129c6565b634e487b7160e01b5f52603160045260245ffd5b808201808211156105bf576105bf6133a256fea2646970667358221220712a3eab0985cdbd6515fe757e3a83af05d53dc1aa5773593ea6618de1a96ff164736f6c634300081c0033",
  "linkReferences": {},
  "deployedLinkReferences": {},
  "immutableReferences": {
    "1161": [
      {
        "length": 32,
        "start": 584
      },
      {
        "length": 32,
        "start": 656
      },
      {
        "length": 32,
        "start": 1675
      },
      {
        "length": 32,
        "start": 2682
      },
      {
        "length": 32,
        "start": 6623
      },
      {
        "length": 32,
        "start": 7874
      },
      {
        "length": 32,
        "start": 8633
      },
      {
        "length": 32,
        "start": 8683
      },
      {
        "length": 32,
        "start": 9436
      },
      {
        "length": 32,
        "start": 9486
      }
    ],
    "1164": [
      {
        "length": 32,
        "start": 711
      },
      {
        "length": 32,
        "start": 2840
      },
      {
        "length": 32,
        "start": 5533
      },
      {
        "length": 32,
        "start": 5667
      },
      {
        "length": 32,
        "start": 5719
      },
      {
        "length": 32,
        "start": 5769
      },
      {
        "length": 32,
        "start": 5845
      },
      {
        "length": 32,
        "start": 5933
      },
      {
        "length": 32,
        "start": 6039
      }
    ],
    "1167": [
      {
        "length": 32,
        "start": 1284
      },
      {
        "length": 32,
        "start": 6206
      },
      {
        "length": 32,
        "start": 7582
      }
    ],
    "1170": [
      {
        "length": 32,
        "start": 1322
      },
      {
        "length": 32,
        "start": 6784
      },
      {
        "length": 32,
        "start": 9103
      }
    ]
  },
  "inputSourceName": "npm/@chainlink/contracts-ccip@1.6.2/contracts/pools/BurnMintTokenPool.sol",
  "buildInfoId": "solc-0_8_28-9c01562302a955e191812bf9e619ff87f27a7699"
}